{
  "contractName": "CompanyTokenTimelock",
  "abi": [
    {
      "inputs": [
        {
          "name": "token",
          "type": "address"
        },
        {
          "name": "company",
          "type": "address"
        },
        {
          "name": "companyReleaseTime",
          "type": "uint256"
        }
      ],
      "payable": false,
      "stateMutability": "nonpayable",
      "type": "constructor"
    },
    {
      "constant": true,
      "inputs": [],
      "name": "token",
      "outputs": [
        {
          "name": "",
          "type": "address"
        }
      ],
      "payable": false,
      "stateMutability": "view",
      "type": "function"
    },
    {
      "constant": true,
      "inputs": [],
      "name": "company",
      "outputs": [
        {
          "name": "",
          "type": "address"
        }
      ],
      "payable": false,
      "stateMutability": "view",
      "type": "function"
    },
    {
      "constant": true,
      "inputs": [],
      "name": "companyReleaseTime",
      "outputs": [
        {
          "name": "",
          "type": "uint256"
        }
      ],
      "payable": false,
      "stateMutability": "view",
      "type": "function"
    },
    {
      "constant": true,
      "inputs": [],
      "name": "amountHeld",
      "outputs": [
        {
          "name": "",
          "type": "uint256"
        }
      ],
      "payable": false,
      "stateMutability": "view",
      "type": "function"
    },
    {
      "constant": false,
      "inputs": [],
      "name": "release",
      "outputs": [],
      "payable": false,
      "stateMutability": "nonpayable",
      "type": "function"
    }
  ],
  "bytecode": "0x608060405234801561001057600080fd5b506040516060806109cd8339810180604052606081101561003057600080fd5b810190808051906020019092919080519060200190929190805190602001909291905050504281116100ad576040517f08c379a000000000000000000000000000000000000000000000000000000000815260040180806020018281038252603281526020018061099b6032913960400191505060405180910390fd5b826000806101000a81548173ffffffffffffffffffffffffffffffffffffffff021916908373ffffffffffffffffffffffffffffffffffffffff16021790555081600160006101000a81548173ffffffffffffffffffffffffffffffffffffffff021916908373ffffffffffffffffffffffffffffffffffffffff16021790555080600281905550505050610854806101476000396000f3fe608060405234801561001057600080fd5b50600436106100575760003560e01c80631329006a1461005c57806314d3cc061461007a5780636904c94d1461009857806386d1a69f146100e2578063fc0c546a146100ec575b600080fd5b610064610136565b6040518082815260200191505060405180910390f35b61008261021b565b6040518082815260200191505060405180910390f35b6100a0610225565b604051808273ffffffffffffffffffffffffffffffffffffffff1673ffffffffffffffffffffffffffffffffffffffff16815260200191505060405180910390f35b6100ea61024f565b005b6100f4610451565b604051808273ffffffffffffffffffffffffffffffffffffffff1673ffffffffffffffffffffffffffffffffffffffff16815260200191505060405180910390f35b6000806000809054906101000a900473ffffffffffffffffffffffffffffffffffffffff1673ffffffffffffffffffffffffffffffffffffffff166370a08231306040518263ffffffff1660e01b8152600401808273ffffffffffffffffffffffffffffffffffffffff1673ffffffffffffffffffffffffffffffffffffffff16815260200191505060206040518083038186803b1580156101d757600080fd5b505afa1580156101eb573d6000803e3d6000fd5b505050506040513d602081101561020157600080fd5b810190808051906020019092919050505090508091505090565b6000600254905090565b6000600160009054906101000a900473ffffffffffffffffffffffffffffffffffffffff16905090565b6002544210156102aa576040517f08c379a00000000000000000000000000000000000000000000000000000000081526004018080602001828103825260328152602001806107aa6032913960400191505060405180910390fd5b60008060009054906101000a900473ffffffffffffffffffffffffffffffffffffffff1673ffffffffffffffffffffffffffffffffffffffff166370a08231306040518263ffffffff1660e01b8152600401808273ffffffffffffffffffffffffffffffffffffffff1673ffffffffffffffffffffffffffffffffffffffff16815260200191505060206040518083038186803b15801561034a57600080fd5b505afa15801561035e573d6000803e3d6000fd5b505050506040513d602081101561037457600080fd5b81019080805190602001909291905050509050600081116103e0576040517f08c379a00000000000000000000000000000000000000000000000000000000081526004018080602001828103825260238152602001806108066023913960400191505060405180910390fd5b61044e600160009054906101000a900473ffffffffffffffffffffffffffffffffffffffff16826000809054906101000a900473ffffffffffffffffffffffffffffffffffffffff1673ffffffffffffffffffffffffffffffffffffffff1661047a9092919063ffffffff16565b50565b60008060009054906101000a900473ffffffffffffffffffffffffffffffffffffffff16905090565b610546838473ffffffffffffffffffffffffffffffffffffffff1663a9059cbb905060e01b8484604051602401808373ffffffffffffffffffffffffffffffffffffffff1673ffffffffffffffffffffffffffffffffffffffff16815260200182815260200192505050604051602081830303815290604052907bffffffffffffffffffffffffffffffffffffffffffffffffffffffff19166020820180517bffffffffffffffffffffffffffffffffffffffffffffffffffffffff838183161783525050505061054b565b505050565b61056a8273ffffffffffffffffffffffffffffffffffffffff16610796565b6105dc576040517f08c379a000000000000000000000000000000000000000000000000000000000815260040180806020018281038252601f8152602001807f5361666545524332303a2063616c6c20746f206e6f6e2d636f6e74726163740081525060200191505060405180910390fd5b600060608373ffffffffffffffffffffffffffffffffffffffff16836040518082805190602001908083835b6020831061062b5780518252602082019150602081019050602083039250610608565b6001836020036101000a0380198251168184511680821785525050505050509050019150506000604051808303816000865af19150503d806000811461068d576040519150601f19603f3d011682016040523d82523d6000602084013e610692565b606091505b50915091508161070a576040517f08c379a00000000000000000000000000000000000000000000000000000000081526004018080602001828103825260208152602001807f5361666545524332303a206c6f772d6c6576656c2063616c6c206661696c656481525060200191505060405180910390fd5b6000815111156107905780806020019051602081101561072957600080fd5b810190808051906020019092919050505061078f576040517f08c379a000000000000000000000000000000000000000000000000000000000815260040180806020018281038252602a8152602001806107dc602a913960400191505060405180910390fd5b5b50505050565b600080823b90506000811191505091905056fe546f6b656e54696d656c6f636b3a2063757272656e742074696d65206973206265666f72652072656c656173652074696d655361666545524332303a204552433230206f7065726174696f6e20646964206e6f742073756363656564546f6b656e54696d656c6f636b3a206e6f20746f6b656e7320746f2072656c65617365a165627a7a723058203afca4f78af02a538c43fc724c31957c35fe60eb2264bf8d5b816fd6223cdd110029546f6b656e54696d656c6f636b3a2072656c656173652074696d65206973206265666f72652063757272656e742074696d65",
  "source": "pragma solidity ^0.5.8;\n\nimport \"openzeppelin-solidity/contracts/token/ERC20/SafeERC20.sol\";\n\n/**\n * @title TokenTimelock\n * @dev TokenTimelock is a token holder contract that will allow a\n * company to extract the tokens after a given release time.\n */\ncontract CompanyTokenTimelock {\n    using SafeERC20 for IERC20;\n\n    // ERC20 basic token contract being held\n    IERC20 private _token;\n\n    // company of tokens after they are released\n    address private _company;\n\n    // timestamp when token release is enabled\n    uint256 private _companyReleaseTime;\n\n    constructor (IERC20 token, address company, uint256 companyReleaseTime) public {\n        // solhint-disable-next-line not-rely-on-time\n        require(companyReleaseTime > block.timestamp, \"TokenTimelock: release time is before current time\");\n        _token = token;\n        _company = company;\n        _companyReleaseTime = companyReleaseTime;\n    }\n\n    /**\n     * @return the token being held.\n     */\n    function token() public view returns (IERC20) {\n        return _token;\n    }\n\n    /**\n     * @return the company of the tokens.\n     */\n    function company() public view returns (address) {\n        return _company;\n    }\n\n    /**\n     * @return the time when the tokens are released.\n     */\n    function companyReleaseTime() public view returns (uint256) {\n        return _companyReleaseTime;\n    }\n\n    /**\n     * @return the balance of total tokens held.\n     */\n    function amountHeld() public view returns (uint256) {\n        uint256 amount = _token.balanceOf(address(this));\n        return amount;\n    }\n\n    /**\n     * @notice Transfers tokens held by timelock to company.\n     */\n    function release() public {\n        // solhint-disable-next-line not-rely-on-time\n        require(block.timestamp >= _companyReleaseTime, \"TokenTimelock: current time is before release time\");\n\n        uint256 amount = _token.balanceOf(address(this));\n        require(amount > 0, \"TokenTimelock: no tokens to release\");\n\n        _token.safeTransfer(_company, amount);\n    }\n}\n",
  "sourcePath": "/home/sukhbir-benipal/STO/Want-Marketplaces-STO/contracts/TimeLock/CompanyTokenTimelock.sol",
  "compiler": {
    "name": "solc",
    "version": "0.5.8+commit.23d335f2.Emscripten.clang"
  },
  "schemaVersion": "3.0.9",
  "updatedAt": "2019-06-21T06:58:39.315Z",
  "devdoc": {
    "details": "TokenTimelock is a token holder contract that will allow a company to extract the tokens after a given release time.",
    "methods": {
      "amountHeld()": {
        "return": "the balance of total tokens held."
      },
      "company()": {
        "return": "the company of the tokens."
      },
      "companyReleaseTime()": {
        "return": "the time when the tokens are released."
      },
      "token()": {
        "return": "the token being held."
      }
    },
    "title": "TokenTimelock"
  },
  "userdoc": {
    "methods": {
      "release()": {
        "notice": "Transfers tokens held by timelock to company."
      }
    }
  }
}