{
  "contractName": "Escrow",
  "abi": [
    {
      "constant": false,
      "inputs": [
        {
          "name": "recipient",
          "type": "address"
        }
      ],
      "name": "transferPrimary",
      "outputs": [],
      "payable": false,
      "stateMutability": "nonpayable",
      "type": "function"
    },
    {
      "constant": true,
      "inputs": [],
      "name": "primary",
      "outputs": [
        {
          "name": "",
          "type": "address"
        }
      ],
      "payable": false,
      "stateMutability": "view",
      "type": "function"
    },
    {
      "anonymous": false,
      "inputs": [
        {
          "indexed": true,
          "name": "payee",
          "type": "address"
        },
        {
          "indexed": false,
          "name": "weiAmount",
          "type": "uint256"
        }
      ],
      "name": "Deposited",
      "type": "event"
    },
    {
      "anonymous": false,
      "inputs": [
        {
          "indexed": true,
          "name": "payee",
          "type": "address"
        },
        {
          "indexed": false,
          "name": "weiAmount",
          "type": "uint256"
        }
      ],
      "name": "Withdrawn",
      "type": "event"
    },
    {
      "anonymous": false,
      "inputs": [
        {
          "indexed": false,
          "name": "recipient",
          "type": "address"
        }
      ],
      "name": "PrimaryTransferred",
      "type": "event"
    },
    {
      "constant": true,
      "inputs": [
        {
          "name": "payee",
          "type": "address"
        }
      ],
      "name": "depositsOf",
      "outputs": [
        {
          "name": "",
          "type": "uint256"
        }
      ],
      "payable": false,
      "stateMutability": "view",
      "type": "function"
    },
    {
      "constant": false,
      "inputs": [
        {
          "name": "payee",
          "type": "address"
        }
      ],
      "name": "deposit",
      "outputs": [],
      "payable": true,
      "stateMutability": "payable",
      "type": "function"
    },
    {
      "constant": false,
      "inputs": [
        {
          "name": "payee",
          "type": "address"
        }
      ],
      "name": "withdraw",
      "outputs": [],
      "payable": false,
      "stateMutability": "nonpayable",
      "type": "function"
    }
  ],
  "bytecode": "0x6080604052336000806101000a81548173ffffffffffffffffffffffffffffffffffffffff021916908373ffffffffffffffffffffffffffffffffffffffff1602179055507f4101e71e974f68df5e9730cc223280b41654676bbb052cdcc735c3337e64d2d96000809054906101000a900473ffffffffffffffffffffffffffffffffffffffff16604051808273ffffffffffffffffffffffffffffffffffffffff1673ffffffffffffffffffffffffffffffffffffffff16815260200191505060405180910390a16108b7806100d76000396000f3fe60806040526004361061004a5760003560e01c80632348238c1461004f57806351cff8d9146100a0578063c6dbdf61146100f1578063e3a9db1a14610148578063f340fa01146101ad575b600080fd5b34801561005b57600080fd5b5061009e6004803603602081101561007257600080fd5b81019080803573ffffffffffffffffffffffffffffffffffffffff1690602001909291905050506101f1565b005b3480156100ac57600080fd5b506100ef600480360360208110156100c357600080fd5b81019080803573ffffffffffffffffffffffffffffffffffffffff1690602001909291905050506103e3565b005b3480156100fd57600080fd5b506101066105aa565b604051808273ffffffffffffffffffffffffffffffffffffffff1673ffffffffffffffffffffffffffffffffffffffff16815260200191505060405180910390f35b34801561015457600080fd5b506101976004803603602081101561016b57600080fd5b81019080803573ffffffffffffffffffffffffffffffffffffffff1690602001909291905050506105d3565b6040518082815260200191505060405180910390f35b6101ef600480360360208110156101c357600080fd5b81019080803573ffffffffffffffffffffffffffffffffffffffff16906020019092919050505061061c565b005b6000809054906101000a900473ffffffffffffffffffffffffffffffffffffffff1673ffffffffffffffffffffffffffffffffffffffff163373ffffffffffffffffffffffffffffffffffffffff1614610296576040517f08c379a000000000000000000000000000000000000000000000000000000000815260040180806020018281038252602c815260200180610860602c913960400191505060405180910390fd5b600073ffffffffffffffffffffffffffffffffffffffff168173ffffffffffffffffffffffffffffffffffffffff16141561031c576040517f08c379a000000000000000000000000000000000000000000000000000000000815260040180806020018281038252602a815260200180610836602a913960400191505060405180910390fd5b806000806101000a81548173ffffffffffffffffffffffffffffffffffffffff021916908373ffffffffffffffffffffffffffffffffffffffff1602179055507f4101e71e974f68df5e9730cc223280b41654676bbb052cdcc735c3337e64d2d96000809054906101000a900473ffffffffffffffffffffffffffffffffffffffff16604051808273ffffffffffffffffffffffffffffffffffffffff1673ffffffffffffffffffffffffffffffffffffffff16815260200191505060405180910390a150565b6000809054906101000a900473ffffffffffffffffffffffffffffffffffffffff1673ffffffffffffffffffffffffffffffffffffffff163373ffffffffffffffffffffffffffffffffffffffff1614610488576040517f08c379a000000000000000000000000000000000000000000000000000000000815260040180806020018281038252602c815260200180610860602c913960400191505060405180910390fd5b6000600160008373ffffffffffffffffffffffffffffffffffffffff1673ffffffffffffffffffffffffffffffffffffffff1681526020019081526020016000205490506000600160008473ffffffffffffffffffffffffffffffffffffffff1673ffffffffffffffffffffffffffffffffffffffff168152602001908152602001600020819055508173ffffffffffffffffffffffffffffffffffffffff166108fc829081150290604051600060405180830381858888f19350505050158015610557573d6000803e3d6000fd5b508173ffffffffffffffffffffffffffffffffffffffff167f7084f5476618d8e60b11ef0d7d3f06914655adb8793e28ff7f018d4c76d505d5826040518082815260200191505060405180910390a25050565b60008060009054906101000a900473ffffffffffffffffffffffffffffffffffffffff16905090565b6000600160008373ffffffffffffffffffffffffffffffffffffffff1673ffffffffffffffffffffffffffffffffffffffff168152602001908152602001600020549050919050565b6000809054906101000a900473ffffffffffffffffffffffffffffffffffffffff1673ffffffffffffffffffffffffffffffffffffffff163373ffffffffffffffffffffffffffffffffffffffff16146106c1576040517f08c379a000000000000000000000000000000000000000000000000000000000815260040180806020018281038252602c815260200180610860602c913960400191505060405180910390fd5b600034905061071881600160008573ffffffffffffffffffffffffffffffffffffffff1673ffffffffffffffffffffffffffffffffffffffff168152602001908152602001600020546107ad90919063ffffffff16565b600160008473ffffffffffffffffffffffffffffffffffffffff1673ffffffffffffffffffffffffffffffffffffffff168152602001908152602001600020819055508173ffffffffffffffffffffffffffffffffffffffff167f2da466a7b24304f47e87fa2e1e5a81b9831ce54fec19055ce277ca2f39ba42c4826040518082815260200191505060405180910390a25050565b60008082840190508381101561082b576040517f08c379a000000000000000000000000000000000000000000000000000000000815260040180806020018281038252601b8152602001807f536166654d6174683a206164646974696f6e206f766572666c6f77000000000081525060200191505060405180910390fd5b809150509291505056fe5365636f6e646172793a206e6577207072696d61727920697320746865207a65726f20616464726573735365636f6e646172793a2063616c6c6572206973206e6f7420746865207072696d617279206163636f756e74a165627a7a72305820f9bac2c8e9d703cc2395186c41f6eed3e3e51b496b1ce61b2bc00f9ba84281df0029",
  "source": "pragma solidity ^0.5.0;\n\nimport \"../../math/SafeMath.sol\";\nimport \"../../ownership/Secondary.sol\";\n\n /**\n  * @title Escrow\n  * @dev Base escrow contract, holds funds designated for a payee until they\n  * withdraw them.\n  * @dev Intended usage: This contract (and derived escrow contracts) should be a\n  * standalone contract, that only interacts with the contract that instantiated\n  * it. That way, it is guaranteed that all Ether will be handled according to\n  * the Escrow rules, and there is no need to check for payable functions or\n  * transfers in the inheritance tree. The contract that uses the escrow as its\n  * payment method should be its primary, and provide public methods redirecting\n  * to the escrow's deposit and withdraw.\n  */\ncontract Escrow is Secondary {\n    using SafeMath for uint256;\n\n    event Deposited(address indexed payee, uint256 weiAmount);\n    event Withdrawn(address indexed payee, uint256 weiAmount);\n\n    mapping(address => uint256) private _deposits;\n\n    function depositsOf(address payee) public view returns (uint256) {\n        return _deposits[payee];\n    }\n\n    /**\n     * @dev Stores the sent amount as credit to be withdrawn.\n     * @param payee The destination address of the funds.\n     */\n    function deposit(address payee) public onlyPrimary payable {\n        uint256 amount = msg.value;\n        _deposits[payee] = _deposits[payee].add(amount);\n\n        emit Deposited(payee, amount);\n    }\n\n    /**\n     * @dev Withdraw accumulated balance for a payee.\n     * @param payee The address whose funds will be withdrawn and transferred to.\n     */\n    function withdraw(address payable payee) public onlyPrimary {\n        uint256 payment = _deposits[payee];\n\n        _deposits[payee] = 0;\n\n        payee.transfer(payment);\n\n        emit Withdrawn(payee, payment);\n    }\n}\n",
  "sourcePath": "openzeppelin-solidity/contracts/payment/escrow/Escrow.sol",
  "compiler": {
    "name": "solc",
    "version": "0.5.8+commit.23d335f2.Emscripten.clang"
  },
  "schemaVersion": "3.0.9",
  "updatedAt": "2019-06-21T06:58:33.587Z",
  "devdoc": {
    "details": "Base escrow contract, holds funds designated for a payee until they withdraw them.Intended usage: This contract (and derived escrow contracts) should be a standalone contract, that only interacts with the contract that instantiated it. That way, it is guaranteed that all Ether will be handled according to the Escrow rules, and there is no need to check for payable functions or transfers in the inheritance tree. The contract that uses the escrow as its payment method should be its primary, and provide public methods redirecting to the escrow's deposit and withdraw.",
    "methods": {
      "deposit(address)": {
        "details": "Stores the sent amount as credit to be withdrawn.",
        "params": {
          "payee": "The destination address of the funds."
        }
      },
      "primary()": {
        "return": "the address of the primary."
      },
      "transferPrimary(address)": {
        "details": "Transfers contract to a new primary.",
        "params": {
          "recipient": "The address of new primary."
        }
      },
      "withdraw(address)": {
        "details": "Withdraw accumulated balance for a payee.",
        "params": {
          "payee": "The address whose funds will be withdrawn and transferred to."
        }
      }
    },
    "title": "Escrow"
  },
  "userdoc": {
    "methods": {}
  }
}