{
  "contractName": "WantMarketplacesToken",
  "abi": [
    {
      "constant": true,
      "inputs": [],
      "name": "name",
      "outputs": [
        {
          "name": "",
          "type": "string"
        }
      ],
      "payable": false,
      "stateMutability": "view",
      "type": "function"
    },
    {
      "constant": false,
      "inputs": [
        {
          "name": "spender",
          "type": "address"
        },
        {
          "name": "value",
          "type": "uint256"
        }
      ],
      "name": "approve",
      "outputs": [
        {
          "name": "",
          "type": "bool"
        }
      ],
      "payable": false,
      "stateMutability": "nonpayable",
      "type": "function"
    },
    {
      "constant": true,
      "inputs": [],
      "name": "totalSupply",
      "outputs": [
        {
          "name": "",
          "type": "uint256"
        }
      ],
      "payable": false,
      "stateMutability": "view",
      "type": "function"
    },
    {
      "constant": false,
      "inputs": [
        {
          "name": "from",
          "type": "address"
        },
        {
          "name": "to",
          "type": "address"
        },
        {
          "name": "value",
          "type": "uint256"
        }
      ],
      "name": "transferFrom",
      "outputs": [
        {
          "name": "",
          "type": "bool"
        }
      ],
      "payable": false,
      "stateMutability": "nonpayable",
      "type": "function"
    },
    {
      "constant": true,
      "inputs": [],
      "name": "decimals",
      "outputs": [
        {
          "name": "",
          "type": "uint8"
        }
      ],
      "payable": false,
      "stateMutability": "view",
      "type": "function"
    },
    {
      "constant": true,
      "inputs": [],
      "name": "cap",
      "outputs": [
        {
          "name": "",
          "type": "uint256"
        }
      ],
      "payable": false,
      "stateMutability": "view",
      "type": "function"
    },
    {
      "constant": false,
      "inputs": [
        {
          "name": "spender",
          "type": "address"
        },
        {
          "name": "addedValue",
          "type": "uint256"
        }
      ],
      "name": "increaseAllowance",
      "outputs": [
        {
          "name": "",
          "type": "bool"
        }
      ],
      "payable": false,
      "stateMutability": "nonpayable",
      "type": "function"
    },
    {
      "constant": false,
      "inputs": [],
      "name": "unpause",
      "outputs": [],
      "payable": false,
      "stateMutability": "nonpayable",
      "type": "function"
    },
    {
      "constant": false,
      "inputs": [
        {
          "name": "account",
          "type": "address"
        },
        {
          "name": "amount",
          "type": "uint256"
        }
      ],
      "name": "mint",
      "outputs": [
        {
          "name": "",
          "type": "bool"
        }
      ],
      "payable": false,
      "stateMutability": "nonpayable",
      "type": "function"
    },
    {
      "constant": false,
      "inputs": [
        {
          "name": "amount",
          "type": "uint256"
        }
      ],
      "name": "burn",
      "outputs": [],
      "payable": false,
      "stateMutability": "nonpayable",
      "type": "function"
    },
    {
      "constant": true,
      "inputs": [
        {
          "name": "account",
          "type": "address"
        }
      ],
      "name": "isPauser",
      "outputs": [
        {
          "name": "",
          "type": "bool"
        }
      ],
      "payable": false,
      "stateMutability": "view",
      "type": "function"
    },
    {
      "constant": true,
      "inputs": [],
      "name": "paused",
      "outputs": [
        {
          "name": "",
          "type": "bool"
        }
      ],
      "payable": false,
      "stateMutability": "view",
      "type": "function"
    },
    {
      "constant": false,
      "inputs": [],
      "name": "renouncePauser",
      "outputs": [],
      "payable": false,
      "stateMutability": "nonpayable",
      "type": "function"
    },
    {
      "constant": true,
      "inputs": [
        {
          "name": "account",
          "type": "address"
        }
      ],
      "name": "balanceOf",
      "outputs": [
        {
          "name": "",
          "type": "uint256"
        }
      ],
      "payable": false,
      "stateMutability": "view",
      "type": "function"
    },
    {
      "constant": false,
      "inputs": [
        {
          "name": "account",
          "type": "address"
        },
        {
          "name": "amount",
          "type": "uint256"
        }
      ],
      "name": "burnFrom",
      "outputs": [],
      "payable": false,
      "stateMutability": "nonpayable",
      "type": "function"
    },
    {
      "constant": false,
      "inputs": [
        {
          "name": "account",
          "type": "address"
        }
      ],
      "name": "addPauser",
      "outputs": [],
      "payable": false,
      "stateMutability": "nonpayable",
      "type": "function"
    },
    {
      "constant": false,
      "inputs": [],
      "name": "pause",
      "outputs": [],
      "payable": false,
      "stateMutability": "nonpayable",
      "type": "function"
    },
    {
      "constant": true,
      "inputs": [],
      "name": "symbol",
      "outputs": [
        {
          "name": "",
          "type": "string"
        }
      ],
      "payable": false,
      "stateMutability": "view",
      "type": "function"
    },
    {
      "constant": false,
      "inputs": [
        {
          "name": "account",
          "type": "address"
        }
      ],
      "name": "addMinter",
      "outputs": [],
      "payable": false,
      "stateMutability": "nonpayable",
      "type": "function"
    },
    {
      "constant": false,
      "inputs": [],
      "name": "renounceMinter",
      "outputs": [],
      "payable": false,
      "stateMutability": "nonpayable",
      "type": "function"
    },
    {
      "constant": false,
      "inputs": [
        {
          "name": "spender",
          "type": "address"
        },
        {
          "name": "subtractedValue",
          "type": "uint256"
        }
      ],
      "name": "decreaseAllowance",
      "outputs": [
        {
          "name": "",
          "type": "bool"
        }
      ],
      "payable": false,
      "stateMutability": "nonpayable",
      "type": "function"
    },
    {
      "constant": false,
      "inputs": [
        {
          "name": "to",
          "type": "address"
        },
        {
          "name": "value",
          "type": "uint256"
        }
      ],
      "name": "transfer",
      "outputs": [
        {
          "name": "",
          "type": "bool"
        }
      ],
      "payable": false,
      "stateMutability": "nonpayable",
      "type": "function"
    },
    {
      "constant": true,
      "inputs": [
        {
          "name": "account",
          "type": "address"
        }
      ],
      "name": "isMinter",
      "outputs": [
        {
          "name": "",
          "type": "bool"
        }
      ],
      "payable": false,
      "stateMutability": "view",
      "type": "function"
    },
    {
      "constant": true,
      "inputs": [
        {
          "name": "owner",
          "type": "address"
        },
        {
          "name": "spender",
          "type": "address"
        }
      ],
      "name": "allowance",
      "outputs": [
        {
          "name": "",
          "type": "uint256"
        }
      ],
      "payable": false,
      "stateMutability": "view",
      "type": "function"
    },
    {
      "inputs": [
        {
          "name": "_name",
          "type": "string"
        },
        {
          "name": "_symbol",
          "type": "string"
        },
        {
          "name": "_decimals",
          "type": "uint8"
        },
        {
          "name": "_totalSupply",
          "type": "uint256"
        }
      ],
      "payable": false,
      "stateMutability": "nonpayable",
      "type": "constructor"
    },
    {
      "anonymous": false,
      "inputs": [
        {
          "indexed": true,
          "name": "account",
          "type": "address"
        }
      ],
      "name": "MinterAdded",
      "type": "event"
    },
    {
      "anonymous": false,
      "inputs": [
        {
          "indexed": true,
          "name": "account",
          "type": "address"
        }
      ],
      "name": "MinterRemoved",
      "type": "event"
    },
    {
      "anonymous": false,
      "inputs": [
        {
          "indexed": false,
          "name": "account",
          "type": "address"
        }
      ],
      "name": "Paused",
      "type": "event"
    },
    {
      "anonymous": false,
      "inputs": [
        {
          "indexed": false,
          "name": "account",
          "type": "address"
        }
      ],
      "name": "Unpaused",
      "type": "event"
    },
    {
      "anonymous": false,
      "inputs": [
        {
          "indexed": true,
          "name": "account",
          "type": "address"
        }
      ],
      "name": "PauserAdded",
      "type": "event"
    },
    {
      "anonymous": false,
      "inputs": [
        {
          "indexed": true,
          "name": "account",
          "type": "address"
        }
      ],
      "name": "PauserRemoved",
      "type": "event"
    },
    {
      "anonymous": false,
      "inputs": [
        {
          "indexed": true,
          "name": "from",
          "type": "address"
        },
        {
          "indexed": true,
          "name": "to",
          "type": "address"
        },
        {
          "indexed": false,
          "name": "value",
          "type": "uint256"
        }
      ],
      "name": "Transfer",
      "type": "event"
    },
    {
      "anonymous": false,
      "inputs": [
        {
          "indexed": true,
          "name": "owner",
          "type": "address"
        },
        {
          "indexed": true,
          "name": "spender",
          "type": "address"
        },
        {
          "indexed": false,
          "name": "value",
          "type": "uint256"
        }
      ],
      "name": "Approval",
      "type": "event"
    }
  ],
  "bytecode": "0x60806040523480156200001157600080fd5b506040516200292338038062002923833981018060405260808110156200003757600080fd5b8101908080516401000000008111156200005057600080fd5b828101905060208101848111156200006757600080fd5b81518560018202830111640100000000821117156200008557600080fd5b50509291906020018051640100000000811115620000a257600080fd5b82810190506020810184811115620000b957600080fd5b8151856001820283011164010000000082111715620000d757600080fd5b505092919060200180519060200190929190805190602001909291905050508084848482600090805190602001906200011292919062000496565b5081600190805190602001906200012b92919062000496565b5080600260006101000a81548160ff021916908360ff1602179055505050506200015b336200021060201b60201c565b6000600760006101000a81548160ff02191690831515021790555062000187336200027160201b60201c565b60008111620001fe576040517f08c379a00000000000000000000000000000000000000000000000000000000081526004018080602001828103825260158152602001807f45524332304361707065643a206361702069732030000000000000000000000081525060200191505060405180910390fd5b80600981905550505050505062000545565b6200022b816006620002d260201b620021531790919060201c565b8073ffffffffffffffffffffffffffffffffffffffff167f6719d08c1888103bea251a4ed56406bd0c3e69723c8a1686e017e7bbe159b6f860405160405180910390a250565b6200028c816008620002d260201b620021531790919060201c565b8073ffffffffffffffffffffffffffffffffffffffff167f6ae172837ea30b801fbfcdd4108aa1d5bf8ff775444fd70256b44e6bf3dfc3f660405160405180910390a250565b620002e48282620003b660201b60201c565b1562000358576040517f08c379a000000000000000000000000000000000000000000000000000000000815260040180806020018281038252601f8152602001807f526f6c65733a206163636f756e7420616c72656164792068617320726f6c650081525060200191505060405180910390fd5b60018260000160008373ffffffffffffffffffffffffffffffffffffffff1673ffffffffffffffffffffffffffffffffffffffff16815260200190815260200160002060006101000a81548160ff0219169083151502179055505050565b60008073ffffffffffffffffffffffffffffffffffffffff168273ffffffffffffffffffffffffffffffffffffffff1614156200043f576040517f08c379a0000000000000000000000000000000000000000000000000000000008152600401808060200182810382526022815260200180620029016022913960400191505060405180910390fd5b8260000160008373ffffffffffffffffffffffffffffffffffffffff1673ffffffffffffffffffffffffffffffffffffffff16815260200190815260200160002060009054906101000a900460ff16905092915050565b828054600181600116156101000203166002900490600052602060002090601f016020900481019282601f10620004d957805160ff19168380011785556200050a565b828001600101855582156200050a579182015b8281111562000509578251825591602001919060010190620004ec565b5b5090506200051991906200051d565b5090565b6200054291905b808211156200053e57600081600090555060010162000524565b5090565b90565b6123ac80620005556000396000f3fe608060405234801561001057600080fd5b50600436106101585760003560e01c80636ef8d66d116100c3578063983b2d561161007c578063983b2d561461062f5780639865027514610673578063a457c2d71461067d578063a9059cbb146106e3578063aa271e1a14610749578063dd62ed3e146107a557610158565b80636ef8d66d146104ae57806370a08231146104b857806379cc67901461051057806382dc1ec41461055e5780638456cb59146105a257806395d89b41146105ac57610158565b80633950935111610115578063395093511461032c5780633f4ba83a1461039257806340c10f191461039c57806342966c681461040257806346fbf68e146104305780635c975abb1461048c57610158565b806306fdde031461015d578063095ea7b3146101e057806318160ddd1461024657806323b872dd14610264578063313ce567146102ea578063355274ea1461030e575b600080fd5b61016561081d565b6040518080602001828103825283818151815260200191508051906020019080838360005b838110156101a557808201518184015260208101905061018a565b50505050905090810190601f1680156101d25780820380516001836020036101000a031916815260200191505b509250505060405180910390f35b61022c600480360360408110156101f657600080fd5b81019080803573ffffffffffffffffffffffffffffffffffffffff169060200190929190803590602001909291905050506108bf565b604051808215151515815260200191505060405180910390f35b61024e610956565b6040518082815260200191505060405180910390f35b6102d06004803603606081101561027a57600080fd5b81019080803573ffffffffffffffffffffffffffffffffffffffff169060200190929190803573ffffffffffffffffffffffffffffffffffffffff16906020019092919080359060200190929190505050610960565b604051808215151515815260200191505060405180910390f35b6102f26109f9565b604051808260ff1660ff16815260200191505060405180910390f35b610316610a10565b6040518082815260200191505060405180910390f35b6103786004803603604081101561034257600080fd5b81019080803573ffffffffffffffffffffffffffffffffffffffff16906020019092919080359060200190929190505050610a1a565b604051808215151515815260200191505060405180910390f35b61039a610ab1565b005b6103e8600480360360408110156103b257600080fd5b81019080803573ffffffffffffffffffffffffffffffffffffffff16906020019092919080359060200190929190505050610c11565b604051808215151515815260200191505060405180910390f35b61042e6004803603602081101561041857600080fd5b8101908080359060200190929190505050610c85565b005b6104726004803603602081101561044657600080fd5b81019080803573ffffffffffffffffffffffffffffffffffffffff169060200190929190505050610c92565b604051808215151515815260200191505060405180910390f35b610494610caf565b604051808215151515815260200191505060405180910390f35b6104b6610cc6565b005b6104fa600480360360208110156104ce57600080fd5b81019080803573ffffffffffffffffffffffffffffffffffffffff169060200190929190505050610cd1565b6040518082815260200191505060405180910390f35b61055c6004803603604081101561052657600080fd5b81019080803573ffffffffffffffffffffffffffffffffffffffff16906020019092919080359060200190929190505050610d1a565b005b6105a06004803603602081101561057457600080fd5b81019080803573ffffffffffffffffffffffffffffffffffffffff169060200190929190505050610d28565b005b6105aa610d92565b005b6105b4610ef3565b6040518080602001828103825283818151815260200191508051906020019080838360005b838110156105f45780820151818401526020810190506105d9565b50505050905090810190601f1680156106215780820380516001836020036101000a031916815260200191505b509250505060405180910390f35b6106716004803603602081101561064557600080fd5b81019080803573ffffffffffffffffffffffffffffffffffffffff169060200190929190505050610f95565b005b61067b610fff565b005b6106c96004803603604081101561069357600080fd5b81019080803573ffffffffffffffffffffffffffffffffffffffff1690602001909291908035906020019092919050505061100a565b604051808215151515815260200191505060405180910390f35b61072f600480360360408110156106f957600080fd5b81019080803573ffffffffffffffffffffffffffffffffffffffff169060200190929190803590602001909291905050506110a1565b604051808215151515815260200191505060405180910390f35b61078b6004803603602081101561075f57600080fd5b81019080803573ffffffffffffffffffffffffffffffffffffffff169060200190929190505050611138565b604051808215151515815260200191505060405180910390f35b610807600480360360408110156107bb57600080fd5b81019080803573ffffffffffffffffffffffffffffffffffffffff169060200190929190803573ffffffffffffffffffffffffffffffffffffffff169060200190929190505050611155565b6040518082815260200191505060405180910390f35b606060008054600181600116156101000203166002900480601f0160208091040260200160405190810160405280929190818152602001828054600181600116156101000203166002900480156108b55780601f1061088a576101008083540402835291602001916108b5565b820191906000526020600020905b81548152906001019060200180831161089857829003601f168201915b5050505050905090565b6000600760009054906101000a900460ff1615610944576040517f08c379a00000000000000000000000000000000000000000000000000000000081526004018080602001828103825260108152602001807f5061757361626c653a207061757365640000000000000000000000000000000081525060200191505060405180910390fd5b61094e83836111dc565b905092915050565b6000600554905090565b6000600760009054906101000a900460ff16156109e5576040517f08c379a00000000000000000000000000000000000000000000000000000000081526004018080602001828103825260108152602001807f5061757361626c653a207061757365640000000000000000000000000000000081525060200191505060405180910390fd5b6109f08484846111f3565b90509392505050565b6000600260009054906101000a900460ff16905090565b6000600954905090565b6000600760009054906101000a900460ff1615610a9f576040517f08c379a00000000000000000000000000000000000000000000000000000000081526004018080602001828103825260108152602001807f5061757361626c653a207061757365640000000000000000000000000000000081525060200191505060405180910390fd5b610aa983836112a4565b905092915050565b610aba33610c92565b610b0f576040517f08c379a00000000000000000000000000000000000000000000000000000000081526004018080602001828103825260308152602001806122526030913960400191505060405180910390fd5b600760009054906101000a900460ff16610b91576040517f08c379a00000000000000000000000000000000000000000000000000000000081526004018080602001828103825260148152602001807f5061757361626c653a206e6f742070617573656400000000000000000000000081525060200191505060405180910390fd5b6000600760006101000a81548160ff0219169083151502179055507f5db9ee0a495bf2e6ff9c91a7834c1ba4fdd244a5e8aa4e537bd38aeae4b073aa33604051808273ffffffffffffffffffffffffffffffffffffffff1673ffffffffffffffffffffffffffffffffffffffff16815260200191505060405180910390a1565b6000610c1c33611138565b610c71576040517f08c379a00000000000000000000000000000000000000000000000000000000081526004018080602001828103825260308152602001806122a46030913960400191505060405180910390fd5b610c7b8383611349565b6001905092915050565b610c8f33826113e8565b50565b6000610ca882600661158890919063ffffffff16565b9050919050565b6000600760009054906101000a900460ff16905090565b610ccf33611666565b565b6000600360008373ffffffffffffffffffffffffffffffffffffffff1673ffffffffffffffffffffffffffffffffffffffff168152602001908152602001600020549050919050565b610d2482826116c0565b5050565b610d3133610c92565b610d86576040517f08c379a00000000000000000000000000000000000000000000000000000000081526004018080602001828103825260308152602001806122526030913960400191505060405180910390fd5b610d8f81611767565b50565b610d9b33610c92565b610df0576040517f08c379a00000000000000000000000000000000000000000000000000000000081526004018080602001828103825260308152602001806122526030913960400191505060405180910390fd5b600760009054906101000a900460ff1615610e73576040517f08c379a00000000000000000000000000000000000000000000000000000000081526004018080602001828103825260108152602001807f5061757361626c653a207061757365640000000000000000000000000000000081525060200191505060405180910390fd5b6001600760006101000a81548160ff0219169083151502179055507f62e78cea01bee320cd4e420270b5ea74000d11b0c9f74754ebdbfc544b05a25833604051808273ffffffffffffffffffffffffffffffffffffffff1673ffffffffffffffffffffffffffffffffffffffff16815260200191505060405180910390a1565b606060018054600181600116156101000203166002900480601f016020809104026020016040519081016040528092919081815260200182805460018160011615610100020316600290048015610f8b5780601f10610f6057610100808354040283529160200191610f8b565b820191906000526020600020905b815481529060010190602001808311610f6e57829003601f168201915b5050505050905090565b610f9e33611138565b610ff3576040517f08c379a00000000000000000000000000000000000000000000000000000000081526004018080602001828103825260308152602001806122a46030913960400191505060405180910390fd5b610ffc816117c1565b50565b6110083361181b565b565b6000600760009054906101000a900460ff161561108f576040517f08c379a00000000000000000000000000000000000000000000000000000000081526004018080602001828103825260108152602001807f5061757361626c653a207061757365640000000000000000000000000000000081525060200191505060405180910390fd5b6110998383611875565b905092915050565b6000600760009054906101000a900460ff1615611126576040517f08c379a00000000000000000000000000000000000000000000000000000000081526004018080602001828103825260108152602001807f5061757361626c653a207061757365640000000000000000000000000000000081525060200191505060405180910390fd5b611130838361191a565b905092915050565b600061114e82600861158890919063ffffffff16565b9050919050565b6000600460008473ffffffffffffffffffffffffffffffffffffffff1673ffffffffffffffffffffffffffffffffffffffff16815260200190815260200160002060008373ffffffffffffffffffffffffffffffffffffffff1673ffffffffffffffffffffffffffffffffffffffff16815260200190815260200160002054905092915050565b60006111e9338484611931565b6001905092915050565b6000611200848484611b28565b611299843361129485600460008a73ffffffffffffffffffffffffffffffffffffffff1673ffffffffffffffffffffffffffffffffffffffff16815260200190815260200160002060003373ffffffffffffffffffffffffffffffffffffffff1673ffffffffffffffffffffffffffffffffffffffff16815260200190815260200160002054611dc890919063ffffffff16565b611931565b600190509392505050565b600061133f338461133a85600460003373ffffffffffffffffffffffffffffffffffffffff1673ffffffffffffffffffffffffffffffffffffffff16815260200190815260200160002060008973ffffffffffffffffffffffffffffffffffffffff1673ffffffffffffffffffffffffffffffffffffffff16815260200190815260200160002054611e5190919063ffffffff16565b611931565b6001905092915050565b60095461136682611358610956565b611e5190919063ffffffff16565b11156113da576040517f08c379a00000000000000000000000000000000000000000000000000000000081526004018080602001828103825260198152602001807f45524332304361707065643a206361702065786365656465640000000000000081525060200191505060405180910390fd5b6113e48282611ed9565b5050565b600073ffffffffffffffffffffffffffffffffffffffff168273ffffffffffffffffffffffffffffffffffffffff16141561146e576040517f08c379a00000000000000000000000000000000000000000000000000000000081526004018080602001828103825260218152602001806123176021913960400191505060405180910390fd5b61148381600554611dc890919063ffffffff16565b6005819055506114db81600360008573ffffffffffffffffffffffffffffffffffffffff1673ffffffffffffffffffffffffffffffffffffffff16815260200190815260200160002054611dc890919063ffffffff16565b600360008473ffffffffffffffffffffffffffffffffffffffff1673ffffffffffffffffffffffffffffffffffffffff16815260200190815260200160002081905550600073ffffffffffffffffffffffffffffffffffffffff168273ffffffffffffffffffffffffffffffffffffffff167fddf252ad1be2c89b69c2b068fc378daa952ba7f163c4a11628f55a4df523b3ef836040518082815260200191505060405180910390a35050565b60008073ffffffffffffffffffffffffffffffffffffffff168273ffffffffffffffffffffffffffffffffffffffff16141561160f576040517f08c379a00000000000000000000000000000000000000000000000000000000081526004018080602001828103825260228152602001806122f56022913960400191505060405180910390fd5b8260000160008373ffffffffffffffffffffffffffffffffffffffff1673ffffffffffffffffffffffffffffffffffffffff16815260200190815260200160002060009054906101000a900460ff16905092915050565b61167a81600661209690919063ffffffff16565b8073ffffffffffffffffffffffffffffffffffffffff167fcd265ebaf09df2871cc7bd4133404a235ba12eff2041bb89d9c714a2621c7c7e60405160405180910390a250565b6116ca82826113e8565b611763823361175e84600460008873ffffffffffffffffffffffffffffffffffffffff1673ffffffffffffffffffffffffffffffffffffffff16815260200190815260200160002060003373ffffffffffffffffffffffffffffffffffffffff1673ffffffffffffffffffffffffffffffffffffffff16815260200190815260200160002054611dc890919063ffffffff16565b611931565b5050565b61177b81600661215390919063ffffffff16565b8073ffffffffffffffffffffffffffffffffffffffff167f6719d08c1888103bea251a4ed56406bd0c3e69723c8a1686e017e7bbe159b6f860405160405180910390a250565b6117d581600861215390919063ffffffff16565b8073ffffffffffffffffffffffffffffffffffffffff167f6ae172837ea30b801fbfcdd4108aa1d5bf8ff775444fd70256b44e6bf3dfc3f660405160405180910390a250565b61182f81600861209690919063ffffffff16565b8073ffffffffffffffffffffffffffffffffffffffff167fe94479a9f7e1952cc78f2d6baab678adc1b772d936c6583def489e524cb6669260405160405180910390a250565b6000611910338461190b85600460003373ffffffffffffffffffffffffffffffffffffffff1673ffffffffffffffffffffffffffffffffffffffff16815260200190815260200160002060008973ffffffffffffffffffffffffffffffffffffffff1673ffffffffffffffffffffffffffffffffffffffff16815260200190815260200160002054611dc890919063ffffffff16565b611931565b6001905092915050565b6000611927338484611b28565b6001905092915050565b600073ffffffffffffffffffffffffffffffffffffffff168373ffffffffffffffffffffffffffffffffffffffff1614156119b7576040517f08c379a000000000000000000000000000000000000000000000000000000000815260040180806020018281038252602481526020018061235d6024913960400191505060405180910390fd5b600073ffffffffffffffffffffffffffffffffffffffff168273ffffffffffffffffffffffffffffffffffffffff161415611a3d576040517f08c379a00000000000000000000000000000000000000000000000000000000081526004018080602001828103825260228152602001806122826022913960400191505060405180910390fd5b80600460008573ffffffffffffffffffffffffffffffffffffffff1673ffffffffffffffffffffffffffffffffffffffff16815260200190815260200160002060008473ffffffffffffffffffffffffffffffffffffffff1673ffffffffffffffffffffffffffffffffffffffff168152602001908152602001600020819055508173ffffffffffffffffffffffffffffffffffffffff168373ffffffffffffffffffffffffffffffffffffffff167f8c5be1e5ebec7d5bd14f71427d1e84f3dd0314c0f7b2291e5b200ac8c7c3b925836040518082815260200191505060405180910390a3505050565b600073ffffffffffffffffffffffffffffffffffffffff168373ffffffffffffffffffffffffffffffffffffffff161415611bae576040517f08c379a00000000000000000000000000000000000000000000000000000000081526004018080602001828103825260258152602001806123386025913960400191505060405180910390fd5b600073ffffffffffffffffffffffffffffffffffffffff168273ffffffffffffffffffffffffffffffffffffffff161415611c34576040517f08c379a000000000000000000000000000000000000000000000000000000000815260040180806020018281038252602381526020018061222f6023913960400191505060405180910390fd5b611c8681600360008673ffffffffffffffffffffffffffffffffffffffff1673ffffffffffffffffffffffffffffffffffffffff16815260200190815260200160002054611dc890919063ffffffff16565b600360008573ffffffffffffffffffffffffffffffffffffffff1673ffffffffffffffffffffffffffffffffffffffff16815260200190815260200160002081905550611d1b81600360008573ffffffffffffffffffffffffffffffffffffffff1673ffffffffffffffffffffffffffffffffffffffff16815260200190815260200160002054611e5190919063ffffffff16565b600360008473ffffffffffffffffffffffffffffffffffffffff1673ffffffffffffffffffffffffffffffffffffffff168152602001908152602001600020819055508173ffffffffffffffffffffffffffffffffffffffff168373ffffffffffffffffffffffffffffffffffffffff167fddf252ad1be2c89b69c2b068fc378daa952ba7f163c4a11628f55a4df523b3ef836040518082815260200191505060405180910390a3505050565b600082821115611e40576040517f08c379a000000000000000000000000000000000000000000000000000000000815260040180806020018281038252601e8152602001807f536166654d6174683a207375627472616374696f6e206f766572666c6f77000081525060200191505060405180910390fd5b600082840390508091505092915050565b600080828401905083811015611ecf576040517f08c379a000000000000000000000000000000000000000000000000000000000815260040180806020018281038252601b8152602001807f536166654d6174683a206164646974696f6e206f766572666c6f77000000000081525060200191505060405180910390fd5b8091505092915050565b600073ffffffffffffffffffffffffffffffffffffffff168273ffffffffffffffffffffffffffffffffffffffff161415611f7c576040517f08c379a000000000000000000000000000000000000000000000000000000000815260040180806020018281038252601f8152602001807f45524332303a206d696e7420746f20746865207a65726f20616464726573730081525060200191505060405180910390fd5b611f9181600554611e5190919063ffffffff16565b600581905550611fe981600360008573ffffffffffffffffffffffffffffffffffffffff1673ffffffffffffffffffffffffffffffffffffffff16815260200190815260200160002054611e5190919063ffffffff16565b600360008473ffffffffffffffffffffffffffffffffffffffff1673ffffffffffffffffffffffffffffffffffffffff168152602001908152602001600020819055508173ffffffffffffffffffffffffffffffffffffffff16600073ffffffffffffffffffffffffffffffffffffffff167fddf252ad1be2c89b69c2b068fc378daa952ba7f163c4a11628f55a4df523b3ef836040518082815260200191505060405180910390a35050565b6120a08282611588565b6120f5576040517f08c379a00000000000000000000000000000000000000000000000000000000081526004018080602001828103825260218152602001806122d46021913960400191505060405180910390fd5b60008260000160008373ffffffffffffffffffffffffffffffffffffffff1673ffffffffffffffffffffffffffffffffffffffff16815260200190815260200160002060006101000a81548160ff0219169083151502179055505050565b61215d8282611588565b156121d0576040517f08c379a000000000000000000000000000000000000000000000000000000000815260040180806020018281038252601f8152602001807f526f6c65733a206163636f756e7420616c72656164792068617320726f6c650081525060200191505060405180910390fd5b60018260000160008373ffffffffffffffffffffffffffffffffffffffff1673ffffffffffffffffffffffffffffffffffffffff16815260200190815260200160002060006101000a81548160ff021916908315150217905550505056fe45524332303a207472616e7366657220746f20746865207a65726f2061646472657373506175736572526f6c653a2063616c6c657220646f6573206e6f742068617665207468652050617573657220726f6c6545524332303a20617070726f766520746f20746865207a65726f20616464726573734d696e746572526f6c653a2063616c6c657220646f6573206e6f74206861766520746865204d696e74657220726f6c65526f6c65733a206163636f756e7420646f6573206e6f74206861766520726f6c65526f6c65733a206163636f756e7420697320746865207a65726f206164647265737345524332303a206275726e2066726f6d20746865207a65726f206164647265737345524332303a207472616e736665722066726f6d20746865207a65726f206164647265737345524332303a20617070726f76652066726f6d20746865207a65726f2061646472657373a165627a7a7230582083d4568258a8404c01424a0d54bb884dabc8a6fcd18ceccd0abb05b25c7ad3ee0029526f6c65733a206163636f756e7420697320746865207a65726f2061646472657373",
  "source": "pragma solidity 0.5.8;\n\nimport \"openzeppelin-solidity/contracts/token/ERC20/ERC20Capped.sol\";\nimport \"openzeppelin-solidity/contracts/token/ERC20/ERC20Detailed.sol\";\nimport 'openzeppelin-solidity/contracts/token/ERC20/ERC20Mintable.sol';\nimport \"openzeppelin-solidity/contracts/token/ERC20/ERC20Pausable.sol\";\nimport \"openzeppelin-solidity/contracts/token/ERC20/ERC20Burnable.sol\";\n\n\ncontract WantMarketplacesToken is ERC20Detailed, ERC20Mintable, ERC20Pausable, ERC20Capped, ERC20Burnable {\n  \n  constructor(\n        string memory _name,\n\tstring memory _symbol,\n\tuint8 _decimals,\n        uint256 _totalSupply\n  ) \n    ERC20Detailed(_name, _symbol, _decimals)\n    ERC20Capped(_totalSupply)\n    public\n  {\n  }\n}\n",
  "sourcePath": "/home/sukhbir-benipal/STO/Want-Marketplaces-STO/contracts/SecurityToken/WantMarketplacesToken.sol",
  "compiler": {
    "name": "solc",
    "version": "0.5.8+commit.23d335f2.Emscripten.clang"
  },
  "schemaVersion": "3.0.9",
  "updatedAt": "2019-06-21T06:58:39.277Z",
  "devdoc": {
    "methods": {
      "allowance(address,address)": {
        "details": "See `IERC20.allowance`."
      },
      "balanceOf(address)": {
        "details": "See `IERC20.balanceOf`."
      },
      "burn(uint256)": {
        "details": "Destoys `amount` tokens from the caller.     * See `ERC20._burn`."
      },
      "burnFrom(address,uint256)": {
        "details": "See `ERC20._burnFrom`."
      },
      "cap()": {
        "details": "Returns the cap on the token's total supply."
      },
      "decimals()": {
        "details": "Returns the number of decimals used to get its user representation. For example, if `decimals` equals `2`, a balance of `505` tokens should be displayed to a user as `5,05` (`505 / 10 ** 2`).     * Tokens usually opt for a value of 18, imitating the relationship between Ether and Wei.     * > Note that this information is only used for _display_ purposes: it in no way affects any of the arithmetic of the contract, including `IERC20.balanceOf` and `IERC20.transfer`."
      },
      "mint(address,uint256)": {
        "details": "See `ERC20._mint`.     * Requirements:     * - the caller must have the `MinterRole`."
      },
      "name()": {
        "details": "Returns the name of the token."
      },
      "pause()": {
        "details": "Called by a pauser to pause, triggers stopped state."
      },
      "paused()": {
        "details": "Returns true if the contract is paused, and false otherwise."
      },
      "symbol()": {
        "details": "Returns the symbol of the token, usually a shorter version of the name."
      },
      "totalSupply()": {
        "details": "See `IERC20.totalSupply`."
      },
      "unpause()": {
        "details": "Called by a pauser to unpause, returns to normal state."
      }
    }
  },
  "userdoc": {
    "methods": {}
  }
}